S029000030382E4C45445F426C696E6B5F776974685F7072657363616C65645F54696D65722E73726563B4
S11300000C942A000C9434000C9434000C943400A6
S11300100C9434000C9434000C9434000C9434008C
S11300200C9434000C9434000C9434000C9434007C
S11300300C9434000C9434000C9434000C9434006C
S11300400C9434000C9434000C9434000C9434005C
S11300500C94340011241FBECFE5D8E0DEBFCDBF21
S11300600E9436000C9447000C940000B89AC09883
S11300708EB583608EBD21E08CB59DB588309D43DF
S1130080D8F388B3822788BB1DBC1CBCF5CFF89479
S1050090FFCF9C
S9030000FC
