:100000000C942A000C9434000C9434000C943400AA
:100010000C9434000C9434000C9434000C94340090
:100020000C9434000C9434000C9434000C94340080
:100030000C9434000C9434000C9434000C94340070
:100040000C9434000C9434000C9434000C94340060
:100050000C94340011241FBECFE5D8E0DEBFCDBF25
:100060000E9436000C9444000C94000081E087BB91
:1000700041E020E23EE448BBC9010197F1F718BA1C
:0C008000C9010197F1F7F7CFF894FFCF0A
:00000001FF
