:100000000C942A000C943F000C943F000C943F0089
:100010000C943F000C943F000C943F000C943F0064
:100020000C943F000C943F000C943F000C943F0054
:100030000C943F000C943F000C943F000C943F0044
:100040000C943F000C943F000C943F000C943F0034
:100050000C943F0011241FBECFE5D8E0DEBFCDBF1A
:1000600010E0A0E6B0E0E8EBF1E002C005900D92F0
:10007000A637B107D9F70E94AF000C94DA000C94B0
:100080000000969A00000000969808951ABA959A72
:100090009498DF9B04C00E944100DF99FCCF8FEF52
:1000A0008ABB0895CF93C82F0E944600CBBB82B372
:1000B0008F7C82BB0E9441001BBACF910895CF93E1
:1000C000C82F0E944600CBBB9598949A0E9441008D
:1000D0001BBACF910895CF93DF93EC0188818823D9
:1000E00031F021960E945F0089918111FBCFDF9151
:1000F000CF910895E62FF0E0E15AFF4F81589081AB
:10010000890F0E9452000895CF93DF93EA010E9465
:100110007A00CE010E946B00DF91CF9108950F937A
:100120001F93CF93DF93D82F8B01C1E0A8016D2FD0
:100130008C2F0E94840083E294EF0197F1F700C0B6
:10014000000042E650E06D2F8C2F0E948400CF5FAC
:10015000C13161F7DF91CF911F910F91089581B364
:10016000806781BB85EA9EE00197F1F700C000003F
:1001700081E00E94520083EF91E00197F1F700C007
:10018000000088E30E94520090E19A95F1F700C0C8
:100190008EE00E94520080E18A95F1F700C064E68B
:1001A00070E081E00E948F006DE670E082E00E94C6
:0801B0008F00F5CFF894FFCF9A
:1001B8000040200044656C687A776E610047616D85
:0601C80069657361690026
:00000001FF
