S0140000526563656976655F556172742E7372656352
S11300000C942A000C9447000C9447000C9447006D
S11300100C9447000C9447000C9447000C94470040
S11300200C9447000C9447000C9447000C94470030
S11300300C9447000C9413010C9447000C94470053
S11300400C9447000C9447000C9447000C94470010
S11300500C94470011241FBECFE5D8E0DEBFCDBF0E
S113006010E0A0E6B0E0E4E5F4E002C005900D92F3
S1130070A036B107D9F720E0A0E6B0E001C01D9298
S1130080A636B207E1F70E94E6000C9428020C940D
S11300900000969A00000000969808951ABA959A5E
S11300A09498DF9B04C00E944900DF99FCCF8FEF36
S11300B08ABB0895CF93C82F0E944E00CBBB82B356
S11300C08F7C82BB0E9449001BBACF910895CF93C5
S11300D0C82F0E944E00CBBB9598949A0E94490069
S11300E01BBACF9108950F931F93CF93DF93162FCD
S11300F0C42FD22F092E000CAA0BBB0B880F991FFB
S1130100AA1FBB1F880F991FAA1FBB1F9C01AD010B
S1130110220F331F441F551F220F331F441F551F27
S113012060E472E48FE090E00E94E701CA01B90143
S113013061507109810991090E9446010E9481015F
S1130140113011F482E08BB970BD69B988E18AB9C4
S1130150C53021F480B5897F80BD0CC0C63021F440
S113016080B5826080BD0CC0C73021F480B5846046
S113017080BD0BC0C83021F480B5866080BD05C049
S1130180C93019F480B5866080BDD53421F480B5BA
S1130190806280BD0BC0DF3421F480B5806380BDF4
S11301A005C0DE3419F480B58F7C80BD013021F4A4
S11301B080B5877F80BD05C0023019F480B58860A2
S11301C080BDDF91CF911F910F910895B89A01E0FE
S11301D02091600048E060E080EC92E10E947300AE
S11301E081B3806781BB85EA9EE00197F1F700C087
S11301F0000081E00E945A0083EF91E00197F1F73B
S113020000C0000088E30E945A0090E19A95F1F73B
S113021000C08EE00E945A0080E18A95F1F700C088
S1130220579A7894FFCF1F920F920FB60F92112412
S11302302F933F934F935F936F937F938F939F93EA
S1130240AF93BF93EF93FF938CB18093630080913E
S11302506300813641F498B381E0892788BB80919B
S113026063000E946700FF91EF91BF91AF919F914E
S11302708F917F916F915F914F913F912F910F904B
S11302800FBE0F901F901895E89409C097FB3EF499
S113029090958095709561957F4F8F4F9F4F9923CF
S11302A0A9F0F92F96E9BB279395F695879577954D
S11302B06795B795F111F8CFFAF4BB0F11F460FF0D
S11302C01BC06F5F7F4F8F4F9F4F16C0882311F065
S11302D096E911C0772321F09EE8872F762F05C079
S11302E0662371F096E8862F70E060E02AF09A9514
S11302F0660F771F881FDAF7880F9695879597F909
S113030008950E94C601A8F19E57B0F1985160F07B
S113031039F1983070F5092E9927660F771F881FD9
S1130320991F0A94D1F71CC0BB27993F4CF4B11113
S1130330B1E0B62B672F782F8827985FB1F708C0F4
S1130340869577956795B79508F4B1609395C1F74D
S1130350BB0F30F411F460FF03C06F5F7F4F8F4F0A
S11303603EF490958095709561957F4F8F4F9F4F88
S1130370089568940C94E1010C94E00157FD9058A1
S1130380440F551F59F05F3F71F04795880F97FB55
S1130390991F61F09F3F79F087950895121613060F
S11303A01406551FF2CF4695F1DF08C0161617063E
S11303B01806991FF1CF8695710561050894089573
S11303C0E894BB2766277727CB0197F90895052E74
S11303D097FB1EF400940E94FE0157FD07D00E9473
S11303E0060207FC03D04EF40C94FE015095409590
S11303F0309521953F4F4F4F5F4F089590958095CD
S1130400709561957F4F8F4F9F4F0895A1E21A2EEB
S1130410AA1BBB1BFD010DC0AA1FBB1FEE1FFF1FA4
S1130420A217B307E407F50720F0A21BB30BE40BF4
S1130430F50B661F771F881F991F1A9469F760953B
S11304407095809590959B01AC01BD01CF010895F5
S1070450F894FFCF4A
S9030000FC
