S02800004C45445F426C696E6B5F776974685F54696D65725F696E5F4354435F6D6F64652E73726563EA
S11300000C942A000C9434000C9434000C943400A6
S11300100C9434000C9434000C9434000C9434008C
S11300200C9434000C9434000C9434000C9434007C
S11300300C9434000C9434000C9434000C9434006C
S11300400C9434000C9434000C9434000C9434005C
S11300500C94340011241FBECFE5D8E0DEBFCDBF21
S11300600E9436000C944D000C940000B89AC0987D
S11300708EB588608EBD8EB583608EBD88E09DE3AD
S11300809BBD8ABD91E008B604FEFDCF88B38927E5
S111009088BB88B7806188BFF6CFF894FFCF95
S9030000FC
