S024000031312E4C45445F426C696E6B5F776974685F496E74657272757074732E7372656392
S11300000C942A000C9434000C9434000C943400A6
S11300100C9434000C9434000C9434000C9436008A
S11300200C9434000C9434000C9434000C9434007C
S11300300C9434000C9434000C9434000C9434006C
S11300400C9434000C9434000C9434000C9434005C
S11300500C94340011241FBECFE5D8E0DEBFCDBF21
S11300600E9448000C9459000C9400001F920F92B7
S11300700FB60F9211248F939F9398B381E0892731
S113008088BB9F918F910F900FBE0F901F90189572
S11300907894B89AC0988EB588608EBD8EB583600A
S11300A08EBD88E09DE39BBD8ABD89B7806189BF11
S10900B0FFCFF894FFCF1E
S9030000FC
