S01D000031352E4C45445F73696D706C655F64696D6D696E672E7372656371
S11300000C942A000C9434000C9434000C943400A6
S11300100C9434000C9434000C9434000C9434008C
S11300200C9434000C9434000C9434000C9434007C
S11300300C9434000C9434000C9434000C9434006C
S11300400C9434000C9434000C9434000C9434005C
S11300500C94340011241FBECFE5D8E0DEBFCDBF21
S11300600E9436000C9464000C940000BB9AC39860
S113007083B7826083BF83B7836483BF83B780629F
S113008083BF1CBE80E090E030E020E00BC0AC01F8
S11300904F5F5F4F8CBF8DEE92E00197F1F700C088
S11300A00000CA018F3F910594F318161906D4F77E
S11300B08CBFEDEEF2E03197F1F700C0000001973C
S10F00C0B9F7832F922FEECFF894FFCFF6
S9030000FC
