:100000000C942A000C9447000C9447000C94470071
:100010000C9447000C9447000C9447000C94470044
:100020000C9447000C9447000C9447000C94470034
:100030000C9447000C9447000C9447000C94470024
:100040000C9447000C9447000C9447000C94470014
:100050000C94470011241FBECFE5D8E0DEBFCDBF12
:1000600020E0A6E6B0E001C01D92A137B207E1F79B
:1000700010E0A0E6B0E0ECE5F4E002C005900D92DF
:10008000A636B107D9F70E94D4000C942C020C9428
:100090000000CF93DF93C82FD0E0CE010E940B0168
:1000A00090936A0080936900CE010E940B019093A7
:1000B000680080936700CE010E940B0190936C0052
:1000C00080936B00DF91CF910895CF93DF931F92C0
:1000D000CDB7DEB78983898190E002C09595879579
:1000E0006A95E2F780FD31C030E0B901660F771FF5
:1000F000E0916700F0916800E60FF71F8081918121
:10010000019691838083E0916700F0916800E60F8B
:10011000F71F8081918148175907E8F580916900A0
:1001200090916A00FC01E20FF31F8081811135C0BC
:1001300081E080838091670090916800FC01E60F68
:10014000F71F1182108281E02BC030E0C901880FB7
:10015000991FE0916B00F0916C00E80FF91F60812E
:1001600071816F5F7F4F7183608360916B007091CD
:100170006C00FB01E80FF91F808191814817590736
:1001800070F48091690090916A00FC01E20FF31F06
:10019000108280E005C080E003C080E001C080E004
:1001A0000F90DF91CF91089581B3876081BB81B3B8
:1001B000877C81BB82B3887F82BB82B3886382BB2A
:1001C00083E00E94490080B321E044E650E063E010
:1001D0000E946500882321F092B381E0892782BBC9
:1001E00080B322E044E650E064E00E94650088238A
:1001F00021F092B382E0892782BB80B323E044E6FA
:1002000050E065E00E9465008823E9F292B384E043
:10021000892782BBD8CF0F931F93CF93DF93823070
:10022000910510F482E090E0E0916F00F091700091
:1002300020E030E0A0E0B0E0309719F1408151813A
:100240000281138148175907C8F08417950769F48C
:10025000109731F012960C93129713961C9327C0A7
:1002600000936F001093700022C02115310519F022
:100270004217530718F49A01BD01EF01DF01F8019D
:10028000DBCF21153105F9F0281B390B243031055E
:1002900080F48A819B816115710521F0FB019383B4
:1002A000828304C09093700080936F00FE013296A9
:1002B00044C0FE01E20FF31F819391932250310954
:1002C000398328833AC020916D0030916E00232B32
:1002D00041F4209162003091630030936E002093CE
:1002E0006D0020916000309161002115310541F4CD
:1002F0002DB73EB74091640050916500241B350B2B
:10030000E0916D00F0916E00E217F307A0F42E1B50
:100310003F0B2817390778F0AC014E5F5F4F241769
:10032000350748F04E0F5F1F50936E0040936D00ED
:100330008193919302C0E0E0F0E0CF01DF91CF9193
:100340001F910F910895CF93DF93009709F481C017
:10035000FC01329713821282A0916F00B09170005D
:10036000109781F420813181820F931F20916D00BD
:1003700030916E002817390751F5F0936E00E09325
:100380006D0067C0ED0120E030E0CE17DF0740F4DC
:100390004A815B819E0141155105F1F0EA01F5CFDB
:1003A000D383C28340815181840F951FC817D90719
:1003B00059F488819981840F951F029691838083D7
:1003C0008A819B81938382832115310529F4F093DF
:1003D0007000E0936F003DC0E901FB83EA8349911F
:1003E0005991C40FD51FEC17FD0761F480819181ED
:1003F000840F951F0296E9019983888382819381F6
:100400009B838A83E0E0F0E012968D919C91139794
:10041000009719F0FD01DC01F7CF8D919C911197A8
:100420009D012E5F3F4F820F931F20916D003091F1
:100430006E002817390769F4309729F4109270007C
:1004400010926F0002C013821282B0936E00A093CC
:0C0450006D00DF91CF910895F894FFCF6C
:06045C0000007100200009
:00000001FF
