:100000000C942A000C9434000C9434000C943400AA
:100010000C9434000C9434000C9434000C94340090
:100020000C9434000C9434000C9434000C94340080
:100030000C9434000C9434000C9434000C94340070
:100040000C9434000C9434000C9434000C94340060
:100050000C94340011241FBECFE5D8E0DEBFCDBF25
:100060000E9436000C9445000C9400008D9A8EB5C9
:1000700083608EBD8EB588608EBD88E09DE39BBD9C
:0E0080008ABD8FB580648FBDFFCFF894FFCF8F
:00000001FF
