:100000000C942A000C9434000C9434000C943400AA
:100010000C9434000C9434000C9434000C94340090
:100020000C9434000C9434000C9434000C94340080
:100030000C9434000C9434000C9434000C94340070
:100040000C9436000C9434000C9434000C9434005E
:100050000C94340011241FBECFE5D8E0DEBFCDBF25
:100060000E944D000C9465000C9400001F920F92AA
:100070000FB60F9211242F938F939F9384B125B1C4
:1000800090E0922B9BBD8ABD369A9F918F912F91C4
:100090000F900FBE0F901F9018958D9A959A3E9ACB
:1000A000339A329A379A389A7894369A8FB5836011
:1000B0008FBD8EB588608EBD8EB582608EBD8FB5CA
:0E00C00080688FBD1BBC1ABCFFCFF894FFCF29
:00000001FF
