S02B000031332E4C45445F426C696E6B5F776974685F4F766572666C6F775F496E746572727570742E737265AC
S11300000C942A000C9434000C9434000C943400A6
S11300100C9434000C9434000C9434000C9434008C
S11300200C9434000C9436000C9434000C9434007A
S11300300C9434000C9434000C9434000C9434006C
S11300400C9434000C9434000C9434000C9434005C
S11300500C94340011241FBECFE5D8E0DEBFCDBF21
S11300600E9448000C9452000C9400001F920F92BE
S11300700FB60F9211248F939F9398B381E0892731
S113008088BB9F918F910F900FBE0F901F90189572
S1130090B89AC0988EB582608EBD789489B7846012
S10B00A089BFFFCFF894FFCFE4
S9030000FC
