:100000000C942A000C943C000C943C000C943C0092
:100010000C943C000C943C000C943C000C943C0070
:100020000C943C000C943C000C943E000C943C005E
:100030000C943C000C943C000C943C000C943C0050
:100040000C943C000C943C000C943C000C943C0040
:100050000C943C0011241FBECFE5D8E0DEBFCDBF1D
:1000600020E0A0E6B0E001C01D92A436B207E1F79F
:100070000E9463000C94D7000C9400001F920F9212
:100080000FB60F9211248F939F93AF93BF938091DC
:10009000600090916100A0916200B09163000196B0
:1000A000A11DB11D8093600090936100A093620038
:1000B000B0936300BF91AF919F918F910F900FBE4E
:1000C0000F901F9018958D9A959883B7826083BF83
:1000D00083B7886083BF8DE78CBF789489B78260CF
:1000E00089BF8EB582608EBD8FB583608FBD8EB5A2
:1000F00088608EBD1BBC1ABC8FB580688FBD12BED8
:1001000010926000109261001092620010926300E1
:100110001BBC1ABC1DBC1CBC80916000909161008E
:10012000A0916200B0916300883E9340A105B105A3
:1001300090F48AB59BB508969BBD8ABD80916000FE
:1001400090916100A0916200B0916300883E93405D
:10015000A105B10570F31092600010926100109239
:1001600062001092630012BE1DBC1CBC8091600036
:1001700090916100A0916200B0916300883E93402D
:10018000A105B10508F0BBCF8AB59BB508979BBD0B
:100190008ABD8091600090916100A0916200B09151
:1001A0006300883E9340A105B10570F3A8CFF89491
:0201B000FFCF7F
:00000001FF
