S018000031382E554152545F5475746F7269616C2E7372656386
S11300000C942A000C9447000C9447000C9447006D
S11300100C9447000C9447000C9447000C94470040
S11300200C9447000C9447000C9447000C94470030
S11300300C9447000C9447000C9447000C94470020
S11300400C9447000C9447000C9447000C94470010
S11300500C94470011241FBECFE5D8E0DEBFCDBF0E
S113006010E0A0E6B0E0EAE4F7E002C005900D92EB
S1130070AA36B107D9F720E0AAE6B0E001C01D9284
S1130080A837B207E1F70E947C010C94A3030C94F7
S11300900000CF93DF93C82FD0E0CE010E948202EC
S11300A09093710080937000CE010E94820290931D
S11300B06D0080936C00CE010E94820290937300C5
S11300C080937200DF91CF910895CF93DF931F92B5
S11300D0CDB7DEB78983898190E002C09595879575
S11300E06A95E2F780FD31C030E0B901660F771FF1
S11300F0E0916C00F0916D00E60FF71F8081918113
S1130100019691838083E0916C00F0916D00E60F7D
S1130110F71F8081918148175907E8F58091700095
S113012090917100FC01E20FF31F8081811135C0B1
S113013081E0808380916C0090916D00FC01E60F5A
S1130140F71F1182108281E02BC030E0C901880FB3
S1130150991FE0917200F0917300E80FF91F60811C
S113016071816F5F7F4F71836083609172007091C2
S11301707300FB01E80FF91F80819181481759072B
S113018070F48091700090917100FC01E20FF31FF4
S1130190108280E005C080E003C080E001C080E000
S11301A00F90DF91CF9108955D9BFECF8CB9089598
S11301B00F931F93CF93DF938C01EC0109900020E0
S11301C0E9F72197C81BD90B10926F0010926E00AB
S11301D02097A1F080E090E0F801E80FF91F8081FA
S11301E00E94D40080916E0090916F0001969093CC
S11301F06F0080936E008C179D0770F380E00E945F
S1130200D400DF91CF911F910F9108950F931F9305
S1130210CF93DF93162FC42FD22F092E000CAA0BD5
S1130220BB0B880F991FAA1FBB1F880F991FAA1FFA
S1130230BB1F9C01AD01220F331F441F551F220F0A
S1130240331F441F551F60E472E48FE090E00E9466
S11302504102CA01B90161507109810991090E94E1
S1130260A0010E94DB01113011F482E08BB970BD52
S113027069B988E18AB980B5886080BDC53021F448
S113028080B5897F80BD0CC0C63021F480B5826002
S113029080BD0CC0C73021F480B5846080BD0BC024
S11302A0C83021F480B5866080BD05C0C93019F41A
S11302B080B5866080BDD53421F480B5806280BD70
S11302C00BC0DF3421F480B5806380BD05C0DE340B
S11302D019F480B58F7C80BD013021F480B5877F0F
S11302E080BD05C0023019F480B5886080BDDF91FF
S11302F0CF911F910F910895B898B99AC09AC19857
S113030001E020916A0048E060E080EC92E10E9404
S1130310060181E00E944900C2E086B321E04CE27C
S113032051E060E00E9465008823B9F388B38C270C
S113033088BB86E690E00E94D800EFCFE89409C01D
S113034097FB3EF490958095709561957F4F8F4F04
S11303509F4F9923A9F0F92F96E9BB279395F6951A
S1130360879577956795B795F111F8CFFAF4BB0F98
S113037011F460FF1BC06F5F7F4F8F4F9F4F16C0FC
S1130380882311F096E911C0772321F09EE8872F86
S1130390762F05C0662371F096E8862F70E060E042
S11303A02AF09A95660F771F881FDAF7880F9695BB
S11303B0879597F908950E942002A8F19E57B0F1FD
S11303C0985160F039F1983070F5092E9927660F2D
S11303D0771F881F991F0A94D1F71CC0BB27993F28
S11303E04CF4B111B1E0B62B672F782F8827985FB2
S11303F0B1F708C0869577956795B79508F4B1600D
S11304009395C1F7BB0F30F411F460FF03C06F5F25
S11304107F4F8F4F3EF490958095709561957F4FF7
S11304208F4F9F4F089568940C943B020C943A02AA
S113043057FD9058440F551F59F05F3F71F0479591
S1130440880F97FB991F61F09F3F79F08795089576
S1130450121613061406551FF2CF4695F1DF08C095
S1130460161617061806991FF1CF869571056105B2
S113047008940895E894BB2766277727CB0197F95A
S11304800895052E97FB1EF400940E94580257FD10
S113049007D00E94600207FC03D04EF40C9458026B
S11304A050954095309521953F4F4F4F5F4F08959C
S11304B090958095709561957F4F8F4F9F4F0895CC
S11304C0A1E21A2EAA1BBB1BFD010DC0AA1FBB1F54
S11304D0EE1FFF1FA217B307E407F50720F0A21BC6
S11304E0B30BE40BF50B661F771F881F991F1A9433
S11304F069F760957095809590959B01AC01BD015D
S1130500CF0108950F931F93CF93DF93823091050A
S113051010F482E090E0E0917600F091770020E022
S113052030E0A0E0B0E0309719F1408151810281C0
S1130530138148175907C8F08417950769F4109771
S113054031F012960C93129713961C9327C00093C4
S113055076001093770022C02115310519F0421757
S1130560530718F49A01BD01EF01DF01F801DBCF55
S113057021153105F9F0281B390B2430310580F49D
S11305808A819B816115710521F0FB01938382832C
S113059004C09093770080937600FE01329644C0A5
S11305A0FE01E20FF31F81939193225031093983A5
S11305B028833AC02091740030917500232B41F4B4
S11305C02091620030916300309375002093740091
S11305D020916000309161002115310541F42DB75F
S11305E03EB74091640050916500241B350BE091A7
S11305F07400F0917500E217F307A0F42E1B3F0B73
S11306002817390778F0AC014E5F5F4F2417350780
S113061048F04E0F5F1F5093750040937400819310
S1130620919302C0E0E0F0E0CF01DF91CF911F9100
S11306300F910895CF93DF93009709F481C0FC01D3
S1130640329713821282A0917600B09177001097AE
S113065081F420813181820F931F209174003091A5
S113066075002817390751F5F0937500E09374006D
S113067067C0ED0120E030E0CE17DF0740F44A8187
S11306805B819E0141155105F1F0EA01F5CFD38359
S1130690C28340815181840F951FC817D90759F42B
S11306A088819981840F951F0296918380838A8122
S11306B09B81938382832115310529F4F09377007C
S11306C0E09376003DC0E901FB83EA8349915991A7
S11306D0C40FD51FEC17FD0761F480819181840F4D
S11306E0951F0296E90199838883828193819B8374
S11306F08A83E0E0F0E012968D919C911397009725
S113070019F0FD01DC01F7CF8D919C9111979D01AA
S11307102E5F3F4F820F931F20917400309175001C
S11307202817390769F4309729F41092770010924A
S1130730760002C013821282B0937500A0937400F5
S10D0740DF91CF910895F894FFCFE4
S10D074A0000780020006162000046
S9030000FC
